:10000000C8C00000EEC00000ECC00000EAC0000064
:10001000E8C00000E6C00000E4C00000E2C000004C
:10002000E0C00000DEC00000DCC000000C9418102E
:100030000C94960ED6C00000D4C00000D2C00000C0
:10004000D0C00000CEC00000CCC00000CAC000007C
:10005000C8C000000C94460BC4C00000C2C0000021
:10006000C0C00000BEC00000BCC00000BAC000009C
:10007000B8C0000020202020202020202020202088
:100080002020202000204D69414D20526F626F7466
:1000900069717565200001290229042908291029A0
:1000A0002029402980290123022304230823102327
:1000B0002023402380238026402620261026042645
:1000C00000010000F40012000200000601430003DA
:1000D0000000490104010309044D01180203090449
:1000E000670116030309047F010C0001C1020180AE
:1000F000260181261201000202000020C01683049E
:1001000000010102030109024300020100C032099B
:100110000400000102020100052400100105240171
:1001200000010424020605240600010705820308D5
:10013000004009040100020A000000070503022034
:10014000000007058402200000040309041803547A
:1001500000650065006E0073007900640075006939
:10016000006E006F0000001603550053004200208F
:1001700000530065007200690061006C0000000C13
:1001800003310032003300340035000000001C0150
:10019000C00D11241FBECFEFD2E0DEBFCDBF11E0F6
:1001A000A0E0B1E0ECE2F2E202C005900D92AE32C6
:1001B000B107D9F711E0AEE2B1E001C01D92AD3A4E
:1001C000B107E1F711E0C2E9D1E004C02297FE01D6
:1001D0000E941011CE38D107C9F70E94500C0C9420
:1001E00014110ECFFB01DC0102C005900D924150AD
:1001F0005040D8F70895FC0105900020E9F780955C
:1002000090958E0F9F1F0895509A589884B58F7DB2
:1002100084BD3D9A10928B0010928A00E0E8F0E0D5
:10022000808180628083509A1092890010928800A9
:100230008081806880830895AF92CF92EF920F9370
:100240001F938EE291E06CE04DE02EE001E074E05F
:10025000E72E55E0C52E36E0A32E0E94C10906E91F
:1002600011E0C80160E070E00E94FE098093420145
:10027000C80161E070E00E94FE09809343011F9174
:100280000F91EF90CF90AF900895CF92DF92EF92C1
:10029000FF920F931F93A6E9CA2EA1E0DA2EC601A2
:1002A0006AE670E00E94FE09E82EFF2400E010E0FC
:1002B000102F0F2DFE2CEE24C6016BE670E00E947D
:1002C000FE0990E0A0E0B0E0E82AF92A0A2B1B2BF7
:1002D000102F0F2DFE2CEE24C6016CE670E00E945C
:1002E000FE09282F30E040E050E02E293F29402B26
:1002F000512BB901CA011F910F91FF90EF90DF9030
:10030000CF90089586E991E06DE670E00C94FE09C7
:100310000F931F93182F062F86E991E061E070E09C
:100320000E94FE09081739F086E991E061E070E06B
:10033000402F0E94050A86E991E060E070E00E948B
:10034000FE09181739F086E991E060E070E0412F6E
:100350000E94050A10934201009343011F910F91DF
:100360000895482F86E991E069E670E00C94050A4B
:100370001F93182FC7DF181739F086E991E06DE653
:1003800070E0412F0E94050A279A8FEF90E0811BB1
:10039000910990938D0080938C00809180008860FB
:1003A000809380001F9108952F923F924F925F9209
:1003B0006F927F928F929F92AF92BF92CF92DF9275
:1003C000EF92FF920F931F93DF93CF9300D000D053
:1003D000CDB7DEB7182F562E242E86E991E064E6BD
:1003E00070E00E94FE09181739F086E991E064E692
:1003F00070E0412F0E94050A86E991E065E670E011
:10040000FDD7581631F086E991E065E670E0452D9C
:10041000FCD786E991E066E670E0F0D7281631F067
:1004200086E991E066E670E0422DEFD786E991E03B
:1004300068E670E0E3D7982E00D000D0612F70E01E
:1004400080E090E024E630E040E050E0ADB7BEB799
:1004500011962D933D934D935C93149720E030E0DB
:1004600040E050E0BFEFEB2EF12C012D112DAA241E
:10047000BB2465010E94300E662E622D70E080E084
:1004800090E02EEB30E040E050E0EDB7FEB7218386
:1004900032834383548320E030E040E050E00E9408
:1004A000300E262E292D30E040E050E029833A839B
:1004B0004B835C83772488249924ADB7BEB711960B
:1004C0002D933D934D935C931497C401B30120E0A9
:1004D00030E040E050E00E94300E662E652D70E066
:1004E00080E090E029813A814B815C81ADB7BEB755
:1004F00011962D933D934D935C93149720E030E03B
:1005000040E050E00E94300E962E332444245524BF
:1005100029813A814B815C81ADB7BEB711962D938D
:100520003D934D935C931497C201B10120E030E0FC
:1005300040E050E00E94300E509A0F900F900F90C4
:100540000F90662021F068BC84B5806203C0589883
:1005500084B58F7D84BD3D9A892D90E090938B006A
:1005600080938A0080918000806280938000509AFE
:10057000862F90E09093890080938800809180007E
:100580008068809380008FE786BD1092850010926E
:10059000840081E085BD809381000F900F900F90C3
:1005A0000F90CF91DF911F910F91FF90EF90DF900F
:1005B000CF90BF90AF909F908F907F906F905F9003
:1005C0004F903F902F9008950F931F93182F86E917
:1005D00091E068E670E012D7181731F086E991E0F3
:1005E00068E670E0412F11D786E991E064E670E09B
:1005F00005D7082F86E991E065E670E0FFD6182F51
:1006000086E991E066E670E0F9D6482F802F612FE9
:10061000CBDE1F910F91089586E991E068E670E0C6
:10062000EDD6D2CFEF92FF920F931F937B018C01F7
:100630002CDE6E157F0580079107C9F098014427CD
:10064000552786E991E06AE670E0422FDED655270D
:10065000412F302F2F2D86E991E06BE670E0422F7D
:10066000D4D686E991E06CE670E04E2DCED680EAD5
:1006700091E040E251EA67E070E00E94DE0D1F91D8
:100680000F91FF90EF90089580EA91E00C946D0C2B
:10069000FBDF892BE9F380EA91E00E946D0C892B46
:1006A00011F480E0089580EA91E00C94A60CCF92BA
:1006B000DF92EF92FF920F931F93DF93CF93CDB70B
:1006C000DEB728970FB6F894DEBF0FBECDBFC82E99
:1006D000D62E8E010F5F1F4F49E0E42EF12CEC0E59
:1006E000FD1ED6DFF80181938F01EE15FF05C9F7D6
:1006F000F4E0FD1578F48EE291E06C2DAE014F5FD1
:100700005F4F10D58EE291E0609144014091450128
:1007100054D529C08D2D90E036E0880F991F3A9569
:10072000E1F70C2D10E023E0000F111F2A95E1F7EF
:1007300002591F4F080F191FEE24FF246E01089461
:10074000C11CD11CB701600F711FF601EE0DFF1D1A
:1007500086E991E0408159D60894E11CF11C88E0BB
:10076000E816F10479F728960FB6F894DEBF0FBEAD
:10077000CDBFCF91DF911F910F91FF90EF90DF9050
:10078000CF9008956F927F928F929F92BF92CF9257
:10079000DF92EF92FF920F931F93DF93CF93CDB72A
:1007A000DEB728970FB6F894DEBF0FBECDBF8530F9
:1007B000B0F5082F10E066E0000F111F6A95E1F711
:1007C00002591F4FBB244E010894811C911C59E013
:1007D000652E712C6C0E7D1E18C086E991E0B70164
:1007E0000DD6F60181936F010894E11CF11CE6150A
:1007F000F70599F7085F1F4F8EE291E06B2DA4017A
:1008000091D4B394F8E0BF1619F064017801E5CFF4
:100810008EE291E06091440140914501CED428964A
:100820000FB6F894DEBF0FBECDBFCF91DF911F9101
:100830000F91FF90EF90DF90CF90BF909F908F909F
:100840007F906F9008950F931F93CF93DF931DDDDB
:100850006150724C8140904028F060E875E280E081
:1008600090E001C012DDDEDE80914201853118F09A
:1008700084E18093420180914301853018F084E047
:1008800080934301279A509A3D9A3E9AC0E0D1E066
:1008900003E011E08881D6D58991E82FF0E0EED50C
:1008A000F8018081BED5F80181918F01E82FF0E039
:1008B000EBD5F1E0C330DF0769F78EE291E060E14C
:1008C00042E020E0B6D4279A82E390E090938D0036
:1008D00080938C0080918000886080938000509A83
:1008E0008FEF88BD84B5806284BD3D9A2FEF30E0E4
:1008F00030938B0020938A008091800080628093E7
:100900008000509A30938900209388008091800065
:1009100080688093800084EC99E020E931E0F9015F
:100920003197F1F70197D9F78EE291E0609142019A
:100930004091430120E07DD4E5DC1ADD6DDE86E9DF
:1009400091E062E070E05AD58F3F11F000E03DC0C9
:100950008EE291E067D48EE291E05DD48EE291E088
:1009600065E870E045D78EE291E060E041E025D493
:100970008EE291E064E770E03BD724EC39E040E997
:1009800051E028C08EE291E060E0402F16D410E0E4
:10099000C02FD0E015C0812F90E064E170E00E948C
:1009A0009210BC016F5F7F4F660F771F6C0F7D1F2A
:1009B00086E991E023D5682F8EE291E0ACD31F5FEA
:1009C00080914201181738F30F5F80914301081797
:1009D000C8F2D3CFCA010197F1F721503040D1F7C7
:1009E00084EC99E020E931E0F9013197F1F70197C2
:1009F000D9F784EC99E020E931E0F9013197F1F77A
:100A00000197D9F784EC99E020E931E0F9013197B9
:100A1000F1F70197D9F78EE291E004D410924401E6
:100A200010924501509143018091420140E0282FEE
:100A300030E0220F331F220F331F60E206C06083B5
:100A40003496E817F907D9F74F5F451750F4842F0C
:100A500090E0FC01EA5BFE4F820F931F8A5B9E4F82
:100A6000F0CF8EE291E0D7D3DF91CF911F910F911C
:100A70000895EF92FF920F931F93DF93CF930F92FE
:100A8000CDB7DEB701DE892B09F494C201DE182F41
:100A90008E3F09F49FC08D3049F51EC0E0912E01B4
:100AA000F0912F010190F081E02D8EE291E060E263
:100AB00009959091440180914501E92FF0E0EE0FF6
:100AC000FF1FEE0FFF1FE80FF11DEA5BFE4F80E2F4
:100AD00080839F5F909344012091420130E0809198
:100AE000440190E082179307CCF256C08A3009F493
:100AF00061C28830C1F580914401882321F0815082
:100B0000809344010EC08091420181508093440142
:100B100080914501882311F4809143018150809395
:100B200045018EE291E0609144014091450145D339
:100B300080914501E0914401F0E0EE0FFF1FEE0FC0
:100B4000FF1FE80FF11DEA5BFE4F80E28083E0911A
:100B50002E01F0912F010190F081E02D8EE291E0C5
:100B600060E209953FC1E0912E01F0912F010190C3
:100B7000F081E02D8EE291E0612F09958091450191
:100B8000E0914401F0E0EE0FFF1FEE0FFF1FE80FB2
:100B9000F11DEA5BFE4F1083809144018F5F8093CB
:100BA000440190914201891708F404C21092440153
:100BB000809145018F5F8093450190914301891792
:100BC00010F0109245018EE291E060E04091450105
:100BD000F4D2F0C15DDD813509F496C0823570F53F
:100BE000883409F464C0893498F4823409F454C018
:100BF000833438F4893309F42AC1803409F0DAC126
:100C000049C0863409F44BC0873409F0D3C17FC092
:100C10008C3409F4AEC08D3438F48A3409F4E7C05A
:100C20008B3409F0C7C1E7C08E3409F45FC18E343C
:100C300008F4B6C0803509F0BDC136C08A39A0F4C9
:100C4000883978F5843509F4D6C0853538F482358D
:100C500009F458C0833509F0ADC1D4C0883559F1C5
:100C6000813909F0A7C120C0803C09F442C1813C10
:100C700038F48A3A09F46AC18B3A09F09BC142C13F
:100C8000803D09F487C1813D09F48EC1813C09F0A2
:100C900091C132C100E0D2C0BFDCFADC8BC1B4DA52
:100CA00089C1F6DC91DC86C1F3DC62DB83C18EE2B4
:100CB00091E0B1D222C08EE291E0B4D250914301D2
:100CC0008091420140E0282F30E0220F331F220F95
:100CD000331F60E206C060833496E817F907D9F73E
:100CE0004F5F451750F4842F90E0FC01EA5BFE4F04
:100CF000820F931F8A5B9E4FF0CF10924401109297
:100D0000450158C180E001C081E02BDB53C1C0DC4C
:100D100080934401BDDC2091440121502093440183
:100D2000382F31503093450140914201241788F00B
:100D3000822F90E0642F70E00E94BD10360F309338
:100D40004501822F90E0642F70E00E94BD108093D7
:100D50004401609143018091450190E070E00E9460
:100D6000BD10482F809345018EE291E060914401CF
:100D70002FCF80914401882321F08150809344013A
:100D800031C080914201815080934401809145019E
:100D9000882311F48091430181508093450122C042
:100DA00040914401242F30E08091420190E001976E
:100DB0002817390724F44F5F4093440113C0109261
:100DC000440140914501242F30E08091430190E09F
:100DD00001972817390724F44F5F4093450102C05B
:100DE000109245018EE291E060914401EFCE8EE2D7
:100DF00091E0CDD1DFC08EE291E0D1D18EE291E0E1
:100E0000C0D1D8C08EE291E0B4D1D4C041DC482F2B
:100E1000812F90E064E170E00E949210BC016F5F4E
:100E20007F4F660F771F6E0D7F1D86E991E0EDD233
:100E30001F5F80914201181748F30F5F80914301B3
:100E4000081708F0B7C010E0E02EFF24F2CF20DC36
:100E5000893219F18A3270F48031E9F1813120F45C
:100E6000883009F0A7C03CC0893181F1823209F095
:100E7000A1C027C0833561F0843520F4833309F0A5
:100E800099C01AC0873699F08F3C09F093C00AC008
:100E900060EB74E080E090E027C060E679E080E0FD
:100EA00090E022C060EC72E180E090E01DC060E85C
:100EB00075E280E090E018C060E07BE480E090E0C4
:100EC00013C060E870E780E090E00EC060E076E973
:100ED00080E090E009C060E071EE80E090E004C046
:100EE00060E072EC81E090E09DDB64C0D1DB6FEFED
:100EF00007C0CEDB47DC5EC0CBDB182FC9DB612F20
:100F0000D6DB58C0C5DBA3E0B1E020E030E001E073
:100F100010E0682F70E0C801022E02C0880F991FF0
:100F20000A94E2F7862397234C911816190624F4A5
:100F3000E42FF0E0A3D203C0E42FF0E0A5D22F5FAE
:100F40003F4F11962330310531F734C040E820E09F
:100F500030E061E070E0F901E050FF4FE081F0E047
:100F600004D3E13041F4FB01022E02C0EE0FFF1F5B
:100F70000A94E2F74E0F2F5F3F4F2330310559F7A8
:100F8000498380EA91E0BE016F5F7F4F41E050E00E
:100F900020D510C07DDB082F7BDB182F79DB482F95
:100FA000802F612F01DA06C073DB182F71DB682FE9
:100FB000812FAED90F90CF91DF911F910F91FF90AC
:100FC000EF900895DC011596EC914E2F50E0CA0188
:100FD000FC015AD284E0982F9150F1F79A01F9015F
:100FE0004DD28150F1F7FA014FD280E991E001979B
:100FF000F1F70895CF92DF92EF92FF920F931F9334
:10100000CF93DF93D82EC92E282F392FC9018C01F9
:10101000C0E0D0E0E62EFF24F801868102D2F8017C
:101020008681E82FF0E0C7010C2E02C095958795C8
:101030000A94E2F78170082E1ED221960F5F1F4F8F
:10104000C830D10549F78D2D9C2DBCDFDF91CF91A4
:101050001F910F91FF90EF90DF90CF900895CF9266
:10106000DF92EF92FF920F931F93CF93DF93D82ECF
:10107000C92E282F392FC9018C01C0E0D0E0E62EFF
:10108000FF24F8018681CDD1F8018681E82FF0E0B8
:10109000C7010C2E02C0959587950A94E2F78170DE
:1010A000082EE9D121960F5F1F4FC430D10549F7B3
:1010B0008D2D9C2D87DFDF91CF911F910F91FF9098
:1010C000EF90DF90CF9008951F93CF93DF93EC01C3
:1010D000162F8B81E82FF0E0042ECDD18C818F3F2D
:1010E00019F0E82FF0E0D0D18E8584FF04C0CE0146
:1010F000612F80DF0CC0612F70E084E075956795EB
:101100008A95E1F7CE01ABDFCE01612FA8DFDF9139
:10111000CF911F91089541E0D7DF81E090E00895DD
:1011200040E0D2CFEF92FF920F931F93CF93DF93C4
:101130008C017A016770660F660F660F6064F0DFDE
:10114000C0E0D0E0D801ED91FC91D701AC0FBD1FFC
:101150000190F081E02DC8016C9109952196C8306D
:10116000D10581F7DF91CF911F910F91FF90EF9003
:101170000895FC016785862F816087876960CF01AC
:10118000CFCFFC0167856E7F67876860C9CFFC01A0
:101190006785862F826087876A60CF01C1CFFC0197
:1011A00067856D7F67876860BBCFFC016785862F89
:1011B000846087876C60CF01B3CFDF93CF93CDB7C7
:1011C000DEB728970FB6F894DEBF0FBECDBF9C01E7
:1011D000FE013196A5E1B1E088E00D9001928150C9
:1011E000E1F7F9018289481710F0482F4150E42FA8
:1011F000F0E0EE0FFF1FEC0FFD1F8181680F6068AC
:10120000C9018EDF28960FB6F894DEBF0FBECDBFA2
:10121000CF91DF91089562E083DF80E49FE1019741
:10122000F1F7089561E07CDF80E49FE10197F1F739
:1012300008950F931F93CF93DF93EC01423018F082
:101240008E8588608E874A8B1B8A222329F0413045
:1012500019F48E8584608E8780E49DE00197F1F714
:101260008B81E82FF0E010D18D81E82FF0E00CD1D8
:101270008C818F3F19F0E82FF0E006D16E8564FD78
:1012800019C0CE0163E0EBDE00E516E4C80101976A
:10129000F1F7CE0163E0E3DEC8010197F1F7CE017B
:1012A00063E0DDDE88E592E00197F1F7CE0162E0D0
:1012B000D6DE13C06062CE0133DF80E596E401978D
:1012C000F1F76E856062CE012BDF88E592E0019731
:1012D000F1F76E856062CE0123DF6E856062CE011C
:1012E0001FDF84E08F87CE0160DFCE019BDF82E0CD
:1012F000888BCE0166E014DFDF91CF911F910F91B3
:1013000008956F927F928F92AF92CF92EF920F9348
:101310001F93DF93CF93CDB7DEB73C01162F842FF9
:10132000F301438324830583E682C782A0868186F6
:101330009D8592879E8593879F85948798899587B9
:1013400070D0F30184818F3F09F06BD0F301858168
:1013500068D0112319F0F301168603C080E1F30170
:101360008687C30160E141E020E063DFCF91DF9138
:101370001F910F91EF90CF90AF908F907F906F90D3
:1013800008958F92AF92CF92DF92EF92FF920F93D8
:101390001F93CF93DF93DC01362F542F722F102F22
:1013A000FE2CDC2C8A2C12961C92129781E191E083
:1013B00011969C938E9300D000D0EDB7FEB7319676
:1013C000CDB7DEB71982118212821382CD0161E09E
:1013D000432F252F072FE12ECF2CAD2C92DF0F901E
:1013E0000F900F900F90DF91CF911F910F91FF9071
:1013F000EF90DF90CF90AF908F900895F999FECF46
:1014000072BD61BDF89A80B50895F999FECF1FBAF3
:1014100072BD61BD40BD0FB6F894FA9AF99A0FBE3D
:101420000895853170F4E6E9F0E0880FE80FF11DCA
:101430009591E491F0E02FB7F8948181892B818315
:101440002FBF08958531B0F4E6E9F0E0880FE80F8A
:10145000F11D9591E491F0E02FB7F894818190957A
:1014600089238183828189238283809100008093F4
:1014700000002FBF0895002039F000C0E53150F47E
:10148000EE0FE55BF54F0994E53120F4EE0FEB58D4
:10149000F54F09940895589A52C0599A08955A9A46
:1014A00008955B9A08955C9A08955D9A08955E9AEE
:1014B00008955F9A0895289A0895299A08952A9A76
:1014C00008952B9A08952C9A08952D9A08952E9A8E
:1014D00008952F9A44C0479A0895469A34C0459A71
:1014E00038C0449A0895429A0895589828C0599847
:1014F00008955A9808955B9808955C9808955D98AA
:1015000008955E9808955F980895289808952998F9
:1015100008952A9808952B9808952C9808952D9849
:1015200008952E9808952F981AC0479808954698C0
:101530000AC045980EC04498089542980895E4B5AD
:10154000EF7DE4BD0895E0918000EF77E0938000A7
:101550000895E0918000EF7DE09380000895E09190
:101560008000E77FE09380000895E53130F4EE0FCE
:10157000EE0FFF27EF53F54F0994EE270895E1E0B2
:101580000895E9B1E170D9F70895E9B1E270B9F7CA
:101590000895E9B1E47099F70895E9B1E87079F731
:1015A0000895E9B1E07159F70895E9B1E07239F7AA
:1015B0000895E9B1E07419F70895E9B1E078F9F612
:1015C0000895E3B1E170D9F60895E3B1E270B9F698
:1015D0000895E3B1E47099F60895E3B1E87079F6FF
:1015E0000895E3B1E07159F60895E3B1E07239F678
:1015F0000895E3B1E07419F60895E3B1E078A9F431
:101600000895E6B1E07889F40895E6B1E07469F4EC
:101610000895E6B1E07249F40895E6B1E07129F465
:101620000895E6B1E47009F40895E1E008951DBA63
:10163000109268001CBC10BE1FBA10926E0010926F
:101640006F001092C90014B817B81AB815B818B8B6
:101650001BB80895F89480E29EE40197F1F781E0C9
:101660008093E00080E28093D80080E69AEE0197B4
:10167000F1F7DDDF0C94001FFFCFF894D8DF80E690
:101680009AEE0197F1F70C940000FFCF8F938FB77C
:101690008F9380919F018D5F8D37D0F480939F0150
:1016A00080919B018F5F80939B01D8F080919C017A
:1016B0008F4F80939C01A8F080919D018F4F809364
:1016C0009D0178F080919E018F4F80939E0109C00B
:1016D0008D5780939F0180919B018E5F80939B012A
:1016E00028F7809197018C5F8093970158F0809143
:1016F00098018F4F8093980128F0809199018F4F26
:10170000809399018F918FBF8F9118959B01AC01A8
:1017100014D0FB010CC011D06E1B7F0B685E7340B0
:10172000D0F32150304040405040E851FC4F21154B
:1017300031054105510579F708950FB6F89466B55E
:1017400015B27091970180919801909199010FBE07
:1017500010FE05C06F3F19F07C5F8F4F9F4F112423
:101760000024660F001C660F001C70290895F89471
:10177000E1E6F0E080E88083108283E084BD85BDEF
:10178000EEE6F0E080818160808381E080938000DC
:1017900082E080938100ABD278940895CF92DF925B
:1017A000EF92FF920F931F93CF93DF937C016B0116
:1017B0008A01C0E0D0E00FC0D6016D916D01D70164
:1017C000ED91FC910190F081E02DC7010995C80FC2
:1017D000D91F015010400115110571F7CE01DF919D
:1017E000CF911F910F91FF90EF90DF90CF900895D0
:1017F0006F927F928F929F92AF92BF92CF92DF9221
:10180000EF92FF920F931F93DF93CF93CDB7DEB785
:10181000A0970FB6F894DEBF0FBECDBF4C015B01A1
:10182000CB010E94FB007C01CC24DD243E01089406
:10183000611C711C1CC0870181E2E816F10410F0E4
:1018400000E210E0C301B501A8010E94F200A00E61
:10185000B11EE01AF10AD401ED91FC910280F381EE
:10186000E02DC401B301A8010995C80ED91EE114E9
:10187000F10409F7C601A0960FB6F894DEBF0FBEBB
:10188000CDBFCF91DF911F910F91FF90EF90DF902F
:10189000CF90BF90AF909F908F907F906F90089562
:1018A00066DF0E942304E5D8FECFDF93CF930F922B
:1018B000CDB7DEB7FC016983A081B18112962D916D
:1018C0003C911397BE016F5F7F4F41E050E0F901FB
:1018D00009950F90CF91DF910895FC019FB7F8947F
:1018E0008091AD01882311F420E010C083E0809343
:1018F000E9002091F200222349F48091E80082FF60
:1019000005C085FD03C08BE68093E8009FBF8085FE
:10191000918597FD03C02F3F09F02F5F822F90E044
:101920000895CF93DF93EC018885998597FF09C0CF
:10193000E881F9810680F781E02DCE01099599872C
:10194000888788859985DF91CF910895FC0120854E
:10195000318537FD05C08FEF9FEF9187808722C0CB
:101960002FB7F8948091AD01882369F083E08093CC
:10197000E9009BE68091E80085FD09C082FF03C075
:101980009093E800F7CF2FBF2FEF3FEF0CC090915F
:10199000F1008091E80085FD03C08BE68093E800AC
:1019A0002FBF292F30E0C90108959FB7F894809187
:1019B000AD01882361F08091AA01882341F084E081
:1019C0008093E9008AE38093E8001092AA019FBF08
:1019D00008956F927F928F929F92AF92BF92CF9213
:1019E000DF92EF92FF920F931F93CF93DF933C010F
:1019F0008B018091AD01882329F481E0D3011296F7
:101A00008C9311C03FB7F89484E08093E9008091F3
:101A1000AC01882369F08091E80085FD07C03FBFD5
:101A200081E0E3018A83882499249AC01092AC0152
:101A300088249924F4E0AF2EE0E2BE2E71EFE72E69
:101A4000F12C6AE3C62E23E0D22E85C09091E400EB
:101A5000915F8091E80085FD19C03FBF8091E4004F
:101A6000891731F481E08093AC01F301828378C05F
:101A70008091AD01882329F481E0D30112968C93E3
:101A80006FC03FB7F894A092E900E3CF8091F200D5
:101A90002B2D281B822F90E04817590708F4242F7C
:101AA000622F70E0E801D701E0E2E21BE03228F4A7
:101AB000EE0FFF27E25AF24F099440C089918C93B0
:101AC00089918C9389918C9389918C9389918C9332
:101AD00089918C9389918C9389918C9389918C9322
:101AE00089918C9389918C9389918C9389918C9312
:101AF00089918C9389918C9389918C9389918C9302
:101B000089918C9389918C9389918C9389918C93F1
:101B100089918C9389918C9389918C9389918C93E1
:101B200089918C9389918C9389918C9389918C93D1
:101B300089918C9389918C9389918C938E0180915A
:101B4000E80085FD02C0C092E800461B570B860ED8
:101B5000971ED092AA014115510509F077CF3FBFDA
:101B6000C401DF91CF911F910F91FF90EF90DF9013
:101B7000CF90BF90AF909F908F907F906F9008957F
:101B8000E0EAF1E08AE0DF011D928A95E9F7109220
:101B9000A20188EE93E0A0E0B0E08093A3019093CF
:101BA000A401A093A501B093A6011092A70181E220
:101BB00091E09093A1018093A00108952FEF3FEF52
:101BC000FC013187208793D00FB6F89480919B0158
:101BD00090919C01A0919D01B0919E010FBEAC011E
:101BE0008091AD01882329F068EC70E080E090E0FE
:101BF0008DCD8091AE01882309F10FB6F8948091C4
:101C00009B0190919C01A0919D01B0919E010FBEFE
:101C10009C0110C00FB6F89480919B0190919C019B
:101C2000A0919D01B0919E010FBE821B930B8B3F33
:101C30009105A8F48091AE01882361F70FB6F8945E
:101C400080919B0190919C01A0919D01B0919E017A
:101C50000FBE841B950B855C994008F4C1CF089595
:101C60002F923F924F925F926F927F928F929F92AC
:101C7000AF92BF92CF92DF92EF92FF920F931F939A
:101C8000DF93CF93CDB7DEB73B014C0119012A0199
:101C90006D897E898F89988D6A197B098C099D09C8
:101CA000621A730A840A950AA40193014DD2E218BC
:101CB000F30804091509A801970195D22A0D3B1DC7
:101CC0004C1D5D1DB901CA01CF91DF911F910F918C
:101CD000FF90EF90DF90CF90BF90AF909F908F904C
:101CE0007F906F905F904F903F902F9008958091DC
:101CF000D80087FF02C085FF18C080EA8093D80013
:101D000086E089BD09B400FEFDCF80E88093D8004D
:101D10001092E0001092AD011092AE011092AF014E
:101D20001092E1008DE08093E20008951F920F92DF
:101D30000FB60F9211242F933F934F935F936F939E
:101D40007F938F939F93AF93BF93EF93FF931092E3
:101D5000E9008091E80083FF57C12091F100909144
:101D6000F1004091F1005091F1006091F10070910B
:101D7000F100A091F100B091F10082EF8093E800B2
:101D8000963009F044C0E0ECF0E020E085919591B8
:101D90008417950711F0359617C085919591861790
:101DA000970711F0339610C0259135914491CD01DC
:101DB000AF3FB10519F010F08FEF90E0841708F4F1
:101DC000482FF9015EEF04C02F5F2630F9F61CC1E1
:101DD0008091E800282F30E0C90185709070892B30
:101DE000B9F322FD14C1242F413208F020E2922FD2
:101DF00004C085918093F10091509923D1F7421B43
:101E00005093E800442321F7203211F300C19530AC
:101E100061F48EEF8093E8008091E80080FFFCCFB2
:101E2000842F80688093E300F2C0993009F5222363
:101E300009F0EAC04093AD011092AF011092AA01DF
:101E40008EEF8093E800EAEEF0E091E09093E900F5
:101E500085918093EB00882331F085918093EC008D
:101E600085918093ED009F5F953081F78EE1C7C02B
:101E7000983061F4203809F0C7C08091E80080FFF5
:101E8000FCCF8091AD018093F10096C09132A9F40E
:101E9000213A09F0B9C08091E80080FFFCCF20E032
:101EA00030E0F901EA5FFE4F80818093F1002F5FFF
:101EB0003F4F27303105A9F77FC0903209F04BC062
:101EC000213209F0A1C08091E80082FFFCCF20E020
:101ED00030E0F901EA5FFE4F8091F10080832F5FCF
:101EE0003F4F27303105A9F78BEF8093E8008EEF45
:101EF0008093E8008091060190910701A09108016C
:101F0000B091090186389105A105B10519F48FE05A
:101F10008093AB018091060190910701A091080187
:101F2000B091090186399105A105B10509F06FC08D
:101F300084E08093E9002FEF06C02093E8008091B1
:101F4000E80082FDFCCF8091EE0090E083709070FD
:101F5000892B99F792DB923251F4213209F054C067
:101F60004093AF018091E80080FFFCCF25C0933201
:101F700041F4213209F048C08091E80080FFFCCF95
:101F80001BC09923E9F48091E80080FFFCCF223840
:101F900011F080E00DC06093E9008091EB0090E0CB
:101FA00025E0969587952A95E1F781701092E900D2
:101FB0008093F1001092F1008EEF8093E80027C02B
:101FC000913011F0933001F52230F1F4452BE1F41A
:101FD000262F2F77822F81508630B0F48EEF80939A
:101FE000E8002093E900933079F089E18093EB00D9
:101FF00081E090E002C0880F991F2A95E2F7809354
:10200000EA001092EA0003C081E28093EB00FF91A6
:10201000EF91BF91AF919F918F917F916F915F9160
:102020004F913F912F910F900FBE0F901F901895D9
:102030001F920F920FB60F9211242F933F934F933D
:102040005F936F937F938F939F93AF93BF93EF9320
:10205000FF938091E1001092E100982F83FF11C05F
:102060001092E90081E08093EB001092EC0082E294
:102070008093ED0088E08093F0001092AD01109203
:10208000AF0192FF1DC08091AD018823C9F08091FE
:10209000AA01882359F081508093AA01882331F442
:1020A00084E08093E9008AE38093E8008091AB01AB
:1020B000882331F081508093AB01882309F4CADA78
:1020C00090FF0CC080E18093E2001092AD0181E0AE
:1020D0008093AE0180EA8093D80019BC8091AE0154
:1020E000882379F094FF0DC086E089BD09B400FE15
:1020F000FDCF80E88093D8008DE08093E2001092BD
:10210000AE01FF91EF91BF91AF919F918F917F9120
:102110006F915F914F913F912F910F900FBE0F9054
:102120001F9018955527002480FF02C0060E571FE8
:10213000660F771F6115710521F0969587950097B9
:1021400099F7952F802D0895FF27EE27BB27AA2703
:1021500060FF04C0A20FB31FE41FF51F220F331F3F
:10216000441F551F969587957795679589F7009732
:10217000760771F7CF01BD010895AA1BBB1B51E182
:1021800007C0AA1FBB1FA617B70710F0A61BB70BE7
:10219000881F991F5A95A9F780959095BC01CD018C
:1021A0000895A1E21A2EAA1BBB1BFD010DC0AA1F98
:1021B000BB1FEE1FFF1FA217B307E407F50720F0B0
:1021C000A21BB30BE40BF50B661F771F881F991F2B
:1021D0001A9469F760957095809590959B01AC0174
:1021E000BD01CF01089597FB092E05260ED057FD9E
:1021F00004D0D7DF0AD0001C38F4509540953095B4
:1022000021953F4F4F4F5F4F0895F6F7909580957A
:10221000709561957F4F8F4F9F4F0895EE0FFF1F71
:0C2220000590F491E02D0994F894FFCF94
:10222C0010131408030200E1000000000800000075
:10223C00008B08CE0B00004000140054000000007E
:0E224C0000550CE90C6D0CA60C910CD50C0085
:00000001FF
